:100000000C945B000C9411030C943E030C9483003D
:100010000C9483000C9483000C9483000C94830054
:100020000C9483000C9483000C9483000C94830044
:100030000C9483000C9483000C9483000C94830034
:100040000C946B030C9483000C945F050C94830058
:100050000C9483000C9483000C9483000C94830014
:100060000C9483000C948300000024272A000025B0
:10007000282B000023262904040404040404040299
:100080000202020202030303030303010204081035
:100090002040800102040810200102040810200002
:1000A0000000070002010000030406000000000039
:1000B000000000001B0211241FBECFEFD4E0DEBF02
:1000C000CDBF11E0A0E0B1E0EEEEFFE002C0059090
:1000D0000D92A032B107D9F711E0A0E2B1E001C062
:1000E0001D92A63CB107E1F710E0C6EBD0E004C0DA
:1000F0002297FE010E94F107C43BD107C9F70E9475
:1001000014020C94F5070C9400000F931F93162F04
:10011000072FAA2797FDA095BA2FBC01CD010E94F9
:100120009C06209100013091010140910201509103
:1001300003010E94280720E030E048EC52E40E94CE
:1001400028070E9469069B0170932101609320019A
:1001500081E021393807CCF5C90185559140CC970C
:10016000A8F460E971E0621B730B882777FD809526
:10017000982F0E949C062DEC3CEC4CE050E40E9431
:10018000010620E030E048E452E41AC0C9018B5F68
:1001900090408A359105C8F464E571E0621B730BE9
:1001A000882777FD8095982F0E949C0626E636E6E4
:1001B00046E450E40E94010620E030E04AE952E4BF
:1001C0000E949D050E94690602C0612F702FCB011D
:1001D0001F910F9108950F931F93CF93DF93009179
:1001E0002201109123011093250100932401861B05
:1001F000970B909323018093220197FF04C01092E4
:10020000230110922201E0912201F09123019F012C
:10021000200F311F8091080190910901AC01249FAA
:10022000C001259F900D349F900D112462E070E075
:100230000E948B07EB019F01201B310B80910A016B
:1002400090910B01AC01249FC001259F900D349F1C
:10025000900D112462E070E00E948B07C60FD71F3B
:1002600080910601909107019C01E29FC001E39FEC
:10027000900DF29F900D1124C80FD91FCF3FD105CB
:1002800014F4CFEFD0E0CE01DF91CF911F910F9109
:1002900008950F931F93CF93DF9300912A0110913C
:1002A0002B0110932D0100932C01861B970B90932B
:1002B0002B0180932A0197FF04C010922B0110920A
:1002C0002A01E0912A01F0912B019F01200F311F9B
:1002D0008091120190911301AC01249FC001259FD0
:1002E000900D349F900D112462E070E00E948B0706
:1002F000EB019F01201B310B80911401909115019E
:10030000AC01249FC001259F900D349F900D1124B6
:1003100062E070E00E948B07C60FD71F809110012A
:10032000909111019C01E29FC001E39F900DF29F0B
:10033000900D1124C80FD91FCF3FD10514F4CFEF72
:10034000D0E0CE01DF91CF911F910F9108950F93CF
:100350001F9382E00E943F0490932701809326011F
:1003600065E070E080E090E00E94DB0365E070E013
:1003700080E090E00E94DB0365E070E080E090E0C8
:100380000E94DB0360910C0170910D0180912601A8
:10039000909127010E948500909329018093280164
:1003A000609126017091270100E311E0C8010E94CD
:1003B00001036091280170912901C8010E94010385
:1003C00060910C0170910D0180912801909129019B
:1003D0000E94EB00BC01809104010E945D046091C9
:1003E00016017091170180912E0190912F010E94AA
:1003F0004901BC0180910E010E945D041F910F9183
:10040000089540E855E260E070E080E391E00E94EA
:10041000260261E080910E010E94B50461E08091A6
:1004200004010E94B50408950E9405040E9401027F
:100430000E94A701FDCF8DE191E09093310180935F
:1004400030010895862F0E9457050895CB01BA0107
:100450000E941E0508950F931F938C01DC01ED91FE
:10046000FC910190F081E02D6DE00995D801ED91AE
:10047000FC910190F081E02D6AE0C80109951F917F
:100480000F9108952F923F924F925F926F927F92B9
:100490008F929F92AF92BF92CF92DF92EF92FF9294
:1004A0000F931F93DF93CF93CDB7DEB7A0970FB60F
:1004B000F894DEBF0FBECDBF1C016A017B01411560
:1004C00051056105710549F4DC01ED91FC91019044
:1004D000F081E02D60E3099554C0882499245401EB
:1004E000422E55246624772401E010E00C0F1D1FD6
:1004F000080D191DC701B601A30192010E949E07B4
:10050000F80160830894811C911CA11CB11CC701D7
:10051000B601A30192010E949E07C901DA016C0194
:100520007D01C114D104E104F104F1F681E0E82E6B
:10053000F12CEC0EFD1EE80CF91C3E010894611C28
:10054000711CD501C4010197A109B1096C01C8183A
:10055000D90814C0F601EE0DFF1D60816A3010F459
:10056000605D01C0695CD101ED91FC910190F08169
:10057000E02DC10109950894E108F1086E147F048B
:1005800049F7A0960FB6F894DEBF0FBECDBFCF914E
:10059000DF911F910F91FF90EF90DF90CF90BF9070
:1005A000AF909F908F907F906F905F904F903F9013
:1005B0002F900895EF92FF920F931F93CF93DF93A5
:1005C000EC017A018B0177FF0FC0E881F98101907E
:1005D000F081E02D6DE2099510950095F094E0947E
:1005E000E11CF11C011D111D2AE0B801A701CE017B
:1005F0000E944202DF91CF911F910F91FF90EF90E7
:1006000008950F931F938C01AB01662757FD6095EA
:10061000762F0E94DA02C8010E942B021F910F91CF
:1006200008951F920F920FB60F9211242F933F93AC
:100630004F935F936F937F938F939F93AF93BF93EA
:10064000EF93FF938091320190913301892B29F030
:10065000E0913201F09133010995FF91EF91BF9143
:10066000AF919F918F917F916F915F914F913F914A
:100670002F910F900FBE0F901F9018951F920F9201
:100680000FB60F9211242F933F934F935F936F9365
:100690007F938F939F93AF93BF93EF93FF9380913B
:1006A000340190913501892B29F0E0913401F091CA
:1006B00035010995FF91EF91BF91AF919F918F9176
:1006C0007F916F915F914F913F912F910F900FBE4E
:1006D0000F901F9018951F920F920FB60F92112432
:1006E0002F938F939F93AF93BF93809136019091F7
:1006F0003701A0913801B09139010196A11DB11DBA
:100700008093360190933701A0933801B09339015B
:1007100080913A0190913B01A0913C01B0913D0143
:100720008050904CAF4FBF4F80933A0190933B0164
:10073000A0933C01B0933D0127C080913A01909174
:100740003B01A0913C01B0913D0180589E43A040E7
:10075000B04080933A0190933B01A0933C01B09349
:100760003D0180913E0190913F01A0914001B091E7
:1007700041010196A11DB11D80933E0190933F015F
:10078000A0934001B093410180913A0190913B01C7
:10079000A0913C01B0913D0181589E43A040B040E2
:1007A00060F6BF91AF919F918F912F910F900FBEE7
:1007B0000F901F901895EF92FF920F931F937B015C
:1007C0008C018FB7F89440913E0150913F016091A8
:1007D0004001709141018FBF2FB7F89480913E0185
:1007E00090913F01A0914001B09141012FBF841B26
:1007F000950BA60BB70BE816F9060A071B0760F75F
:100800001F910F91FF90EF900895789484B58260C6
:1008100084BD84B5816084BD85B5826085BD85B5A4
:10082000816085BDEEE6F0E0808181608083E1E853
:10083000F0E0808182608083808181608083E0E855
:10084000F0E0808181608083E1EBF0E08081846072
:100850008083E0EBF0E0808181608083EAE7F0E074
:1008600080818460808380818260808380818160D8
:1008700080838081806880831092C10008958F708A
:10088000909118019295990F990F907C982B9093C5
:100890007C0080917A00806480937A0080917A0055
:1008A00086FDFCCF2091780040917900942F80E064
:1008B00030E0282B392BC90108951F93CF93DF9384
:1008C000182FEB0161E00E94B504E12FF0E0E15642
:1008D000FF4F8491833051F4809180008068809331
:1008E0008000D0938900C09388003BC0843051F4CD
:1008F00080918000806280938000D0938B00C093B1
:100900008A002FC0813039F4209729F184B580689E
:1009100084BDC7BD26C0823039F42097E1F084B58C
:10092000806284BDC8BD1DC0863041F48091B00096
:1009300080688093B000C093B30013C0873041F447
:100940008091B00080628093B000C093B40009C071
:10095000C038D10514F460E001C061E0812F0E942D
:10096000D304DF91CF911F910895282F30E0C90162
:1009700085579F4FFC01949129583F4FF90184916D
:10098000882381F0E82FF0E0E859FF4FE491F0E090
:10099000662329F48081909589238083089580813E
:1009A000892B80830895482F50E0CA0181569F4FBC
:1009B000FC012491CA0185579F4FFC01949149582D
:1009C0005F4FFA0134913323C1F1222331F12330F7
:1009D00021F4809180008F7705C0243031F480911C
:1009E00080008F7D8093800018C0213019F484B579
:1009F0008F7704C0223021F484B58F7D84BD0DC073
:100A0000263021F48091B0008F7705C0273029F47B
:100A10008091B0008F7D8093B000E32FF0E0E35928
:100A2000FF4FE491F0E0662329F4808190958923BB
:100A3000808308958081892B80830895EF92FF92AF
:100A40000F931F937B018C0122E030E040E050E0E7
:100A50000E94C007205C3D4B404F5F4FCA01B90167
:100A6000A80197010E94C007C901DA010197A109F5
:100A7000B109292F3A2F4B2F552747FD5A9501963B
:100A8000A11DB11D2093C50081508093C400E1ECED
:100A9000F0E08081806180838081886080838081B4
:100AA000806880831F910F91FF90EF900895982F99
:100AB0008091C00085FFFCCF9093C60008951F92DF
:100AC0000F920FB60F9211242F933F934F935F9382
:100AD0006F937F938F939F93AF93BF93EF93FF9306
:100AE0004091C600E0914201F0914301CF0101968F
:100AF00060E870E00E948B079C0180914401909116
:100B000045012817390739F0EA5BFE4F40833093DF
:100B1000430120934201FF91EF91BF91AF919F91CB
:100B20008F917F916F915F914F913F912F910F9096
:100B30000FBE0F901F9018955058BB27AA270ED0B4
:100B40004DC13ED130F043D120F031F49F3F11F43C
:100B50001EF433C10EF4E095E7FB29C1E92F4FD114
:100B600080F3BA17620773078407950718F071F4CA
:100B70009EF567C10EF4E0950B2EBA2FA02D0B0148
:100B8000B90190010C01CA01A0011124FF27591BD2
:100B900099F0593F50F4503E68F11A16F040A22FD8
:100BA000232F342F4427585FF3CF46953795279549
:100BB000A795F0405395C9F77EF41F16BA0B620B48
:100BC000730B840BBAF09150A1F0FF0FBB1F661F8F
:100BD000771F881FC2F70EC0BA0F621F731F841FD2
:100BE00048F4879577956795B795F7959E3F08F0F8
:100BF000B3CF9395880F08F09927EE0F97958795B7
:100C000008950CD0EBC0E3D040F0DAD030F021F4FE
:100C10005F3F19F0CCC0511115C1CFC0F0D098F38F
:100C20009923C9F35523B1F3951B550BBB27AA276D
:100C300062177307840738F09F5F5F4F220F331FDF
:100C4000441FAA1FA9F333D00E2E3AF0E0E830D0AB
:100C500091505040E695001CCAF729D0FE2F27D0AE
:100C6000660F771F881FBB1F261737074807AB077C
:100C7000B0E809F0BB0B802DBF01FF2793585F4FF1
:100C80002AF09E3F510568F092C0DCC05F3FECF354
:100C9000983EDCF3869577956795B795F7959F5FB6
:100CA000C9F7880F911D9695879597F90895E1E00A
:100CB000660F771F881FBB1F621773078407BA0769
:100CC00020F0621B730B840BBA0BEE1F88F7E095C4
:100CD000089504D06894B111B5C0089598D088F0F3
:100CE0009F5790F0B92F9927B751A0F0D1F0660F18
:100CF000771F881F991F1AF0BA95C9F712C0B13033
:100D000081F09FD0B1E008959CC0672F782F88278D
:100D1000B85F39F0B93FCCF3869577956795B39571
:100D2000D9F73EF490958095709561957F4F8F4FE0
:100D30009F4F0895E89409C097FB3EF490958095E5
:100D4000709561957F4F8F4F9F4F9923A9F0F92F91
:100D500096E9BB279395F695879577956795B7950F
:100D6000F111F8CFFAF4BB0F11F460FF1BC06F5FF5
:100D70007F4F8F4F9F4F16C0882311F096E911C007
:100D8000772321F09EE8872F762F05C0662371F028
:100D900096E8862F70E060E02AF09A95660F771F3C
:100DA000881FDAF7880F9695879597F9089597F930
:100DB0009F6780E870E060E008959FEF80EC089501
:100DC00000240A941616170618060906089500242A
:100DD0000A9412161306140605060895092E0394A4
:100DE000000C11F4882352F0BB0F40F4BF2B11F418
:100DF00060FF04C06F5F7F4F8F4F9F4F089557FD77
:100E00009058440F551F59F05F3F71F04795880F78
:100E100097FB991F61F09F3F79F08795089512160F
:100E200013061406551FF2CF4695F1DF08C01616BB
:100E300017061806991FF1CF86957105610508946C
:100E40000895E894BB2766277727CB0197F9089583
:100E50000BD0C4CFB5DF28F0BADF18F0952309F026
:100E6000A6CFABCF1124EECFCADFA0F3959FD1F36D
:100E7000950F50E0551F629FF001729FBB27F00D48
:100E8000B11D639FAA27F00DB11DAA1F649F66279D
:100E9000B00DA11D661F829F2227B00DA11D621FEC
:100EA000739FB00DA11D621F839FA00D611D221FA6
:100EB000749F3327A00D611D231F849F600D211D8A
:100EC000822F762F6A2F11249F5750408AF0E1F02D
:100ED00088234AF0EE0FFF1FBB1F661F771F881F76
:100EE00091505040A9F79E3F510570F060CFAACFB6
:100EF0005F3FECF3983EDCF3869577956795B79561
:100F0000F795E7959F5FC1F7FE2B880F911D96958A
:100F1000879597F9089597FB092E07260AD077FD44
:100F200004D049D006D000201AF4709561957F4F07
:100F30000895F6F7909581959F4F0895A1E21A2E96
:100F4000AA1BBB1BFD010DC0AA1FBB1FEE1FFF1F6D
:100F5000A217B307E407F50720F0A21BB30BE40BBD
:100F6000F50B661F771F881F991F1A9469F7609504
:100F70007095809590959B01AC01BD01CF010895BE
:100F800097FB092E05260ED057FD04D0D7DF0AD0D7
:100F9000001C38F450954095309521953F4F4F4FA8
:100FA0005F4F0895F6F790958095709561957F4F06
:100FB0008F4F9F4F0895AA1BBB1B51E107C0AA1F6B
:100FC000BB1FA617B70710F0A61BB70B881F991FEA
:100FD0005A95A9F780959095BC01CD010895EE0F23
:0E0FE000FF1F0590F491E02D0994F894FFCFC7
:100FEE002E90A03B0B0004000400040052000A00E7
:100FFE000400040004004D00010000000022020065
:00000001FF
